{
  "contractName": "ChangeSeat",
  "abi": [
    {
      "inputs": [],
      "payable": false,
      "stateMutability": "nonpayable",
      "type": "constructor",
      "signature": "constructor"
    },
    {
      "constant": false,
      "inputs": [],
      "name": "register",
      "outputs": [],
      "payable": true,
      "stateMutability": "payable",
      "type": "function",
      "signature": "0x1aa3a008"
    }
  ],
  "bytecode": "0x608060405234801561001057600080fd5b50336000806101000a81548173ffffffffffffffffffffffffffffffffffffffff021916908373ffffffffffffffffffffffffffffffffffffffff160217905550610168806100606000396000f3fe608060405260043610610041576000357c0100000000000000000000000000000000000000000000000000000000900463ffffffff1680631aa3a00814610046575b600080fd5b61004e610050565b005b6802b5e3af16b1880000341115156100f6576040517f08c379a00000000000000000000000000000000000000000000000000000000081526004018080602001828103825260308152602001807f596f752073686f756c64206e656564206d696e696d756d206f6620353020457481526020017f68657220746f2072656769737465722e0000000000000000000000000000000081525060400191505060405180910390fd5b34600160003373ffffffffffffffffffffffffffffffffffffffff1673ffffffffffffffffffffffffffffffffffffffff1681526020019081526020016000208190555056fea165627a7a72305820a8d86793cfef187b8bd6f017e8ec9282d129473b59265d3d9ca30b7cc538e5c40029",
  "source": "pragma solidity >=0.4.22 <0.6.0;\n\ncontract ChangeSeat {\n\n    address chairperson;\n\n    constructor  () public {\n        chairperson = msg.sender;\n    }\n\n    mapping(address => uint) balances;\n\n    function register() public payable{\n\n        require(msg.value > 50 ether,\"You should need minimum of 50 Ether to register.\");\n        balances[msg.sender] = msg.value;\n    }\n}",
  "sourcePath": "/Users/prashant/Documents/courses/blockchain/airline-consortium/contracts/ChangeSeat.sol",
  "compiler": {
    "name": "solc",
    "version": "0.5.0+commit.1d4f565a.Emscripten.clang"
  },
  "schemaVersion": "3.0.2",
  "updatedAt": "2019-05-09T00:58:34.917Z",
  "devdoc": {
    "methods": {}
  },
  "userdoc": {
    "methods": {}
  }
}